{
  "_format": "hh-sol-artifact-1",
  "contractName": "Lottery",
  "sourceName": "contracts/Lottery.sol",
  "abi": [
    {
      "constant": true,
      "inputs": [],
      "name": "manager",
      "outputs": [
        {
          "name": "",
          "type": "address"
        }
      ],
      "payable": false,
      "stateMutability": "view",
      "type": "function"
    },
    {
      "constant": true,
      "inputs": [],
      "name": "getPlayers",
      "outputs": [
        {
          "name": "",
          "type": "address[]"
        }
      ],
      "payable": false,
      "stateMutability": "view",
      "type": "function"
    },
    {
      "constant": false,
      "inputs": [],
      "name": "pickWinners",
      "outputs": [],
      "payable": false,
      "stateMutability": "nonpayable",
      "type": "function"
    },
    {
      "constant": false,
      "inputs": [],
      "name": "enter",
      "outputs": [],
      "payable": true,
      "stateMutability": "payable",
      "type": "function"
    },
    {
      "constant": true,
      "inputs": [
        {
          "name": "",
          "type": "uint256"
        }
      ],
      "name": "players",
      "outputs": [
        {
          "name": "",
          "type": "address"
        }
      ],
      "payable": false,
      "stateMutability": "view",
      "type": "function"
    },
    {
      "inputs": [],
      "payable": false,
      "stateMutability": "nonpayable",
      "type": "constructor"
    }
  ],
  "bytecode": "0x6060604052341561000f57600080fd5b336000806101000a81548173ffffffffffffffffffffffffffffffffffffffff021916908373ffffffffffffffffffffffffffffffffffffffff16021790555061064d8061005e6000396000f30060606040526000357c0100000000000000000000000000000000000000000000000000000000900463ffffffff168063481c6a75146100695780638b5b9ccc146100be578063dc07820f14610128578063e97dcb621461013d578063f71d96cb1461014757600080fd5b341561007457600080fd5b61007c6101aa565b604051808273ffffffffffffffffffffffffffffffffffffffff1673ffffffffffffffffffffffffffffffffffffffff16815260200191505060405180910390f35b34156100c957600080fd5b6100d16101cf565b6040518080602001828103825283818151815260200191508051906020019060200280838360005b838110156101145780820151818401526020810190506100f9565b505050509050019250505060405180910390f35b341561013357600080fd5b61013b610263565b005b6101456103a4565b005b341561015257600080fd5b610168600480803590602001909190505061041e565b604051808273ffffffffffffffffffffffffffffffffffffffff1673ffffffffffffffffffffffffffffffffffffffff16815260200191505060405180910390f35b6000809054906101000a900473ffffffffffffffffffffffffffffffffffffffff1681565b6101d76104ef565b600180548060200260200160405190810160405280929190818152602001828054801561025957602002820191906000526020600020905b8160009054906101000a900473ffffffffffffffffffffffffffffffffffffffff1673ffffffffffffffffffffffffffffffffffffffff168152602001906001019080831161020f575b5050505050905090565b60008060009054906101000a900473ffffffffffffffffffffffffffffffffffffffff1673ffffffffffffffffffffffffffffffffffffffff163373ffffffffffffffffffffffffffffffffffffffff161415156102c057600080fd5b6001805490506102ce61045d565b8115156102d757fe5b0690506001818154811015156102e957fe5b906000526020600020900160009054906101000a900473ffffffffffffffffffffffffffffffffffffffff1673ffffffffffffffffffffffffffffffffffffffff166108fc3073ffffffffffffffffffffffffffffffffffffffff16319081150290604051600060405180830381858888f19350505050151561036b57600080fd5b600060405180591061037a5750595b9080825280602002602001820160405250600190805190602001906103a0929190610503565b5050565b662386f26fc10000341115156103b957600080fd5b600180548060010182816103cd919061058d565b9160005260206000209001600033909190916101000a81548173ffffffffffffffffffffffffffffffffffffffff021916908373ffffffffffffffffffffffffffffffffffffffff16021790555050565b60018181548110151561042d57fe5b90600052602060002090016000915054906101000a900473ffffffffffffffffffffffffffffffffffffffff1681565b6000444260016040518084815260200183815260200182805480156104d757602002820191906000526020600020905b8160009054906101000a900473ffffffffffffffffffffffffffffffffffffffff1673ffffffffffffffffffffffffffffffffffffffff168152602001906001019080831161048d575b50509350505050604051809103902060019004905090565b602060405190810160405280600081525090565b82805482825590600052602060002090810192821561057c579160200282015b8281111561057b5782518260006101000a81548173ffffffffffffffffffffffffffffffffffffffff021916908373ffffffffffffffffffffffffffffffffffffffff16021790555091602001919060010190610523565b5b50905061058991906105b9565b5090565b8154818355818115116105b4578183600052602060002091820191016105b391906105fc565b5b505050565b6105f991905b808211156105f557600081816101000a81549073ffffffffffffffffffffffffffffffffffffffff0219169055506001016105bf565b5090565b90565b61061e91905b8082111561061a576000816000905550600101610602565b5090565b905600a165627a7a723058205af768663205e779493c5ceb2bca95402e3216af296e0ca81e04b82f1910df340029",
  "linkReferences": {},
  "deployedLinkReferences": {}
}